:020000040800F2
:1000000000500020C91200081B1300082713000825
:100010002D130008331300083913000800000000F6
:100020000000000000000000000000003F13000876
:100030004B1300080000000057130008631300086A
:1000400019130008191300081913000819130008E0
:1000500019130008191300081913000819130008D0
:1000600019130008191300081913000819130008C0
:1000700019130008191300081913000819130008B0
:1000800019130008191300081913000819130008A0
:100090001913000819130008191300081913000890
:1000A0001913000819130008191300081913000880
:1000B00019130008C11000081913000819130008CB
:1000C0001913000819130008191300081913000860
:1000D0001913000819130008191300081913000850
:1000E0001913000819130008191300080000000074
:1000F0000000000000000000000000000000000000
:0C01000000000000000000005FF808F1A3
:10010C0010B5054C237833B9044B13B10448AFF345
:10011C0000800123237010BD180000200000000097
:10012C001817000808B5034B1BB103490348AFF37C
:10013C00008008BD000000001C00002018170008FB
:10014C0080B489B000AF786039600023FB61002374
:10015C003B610023BB610023FB6000237B61002318
:10016C00BB603B68DB7803F00F03FB613B68DB781B
:10017C0003F01003002B05D03B689B781A46FB69F3
:10018C001343FB613B681B88DBB2002B44D07B68BC
:10019C001B687B610023BB6138E00122BB6902FA5A
:1001AC0003F3FB603B681B881A46FB6813403B61FA
:1001BC003A69FB689A4226D1BB699B00FB600F220F
:1001CC00FB6802FA03F3BB60BB68DB437A6913403C
:1001DC007B61FA69FB6802FA03F37A6913437B616A
:1001EC003B68DB78282B05D10122BB699A407B68E0
:1001FC005A6108E03B68DB78482B04D10122BB69CB
:10020C009A407B681A61BB690133BB61BB69072BE0
:10021C00C3D97B687A691A603B681B88FF2B46D967
:10022C007B685B687B610023BB613AE0BB69083388
:10023C00012202FA03F3FB603B681B881A46FB6839
:10024C0013403B613A69FB689A4227D1BB699B001A
:10025C00FB600F22FB6802FA03F3BB60BB68DB4355
:10026C007A6913407B61FA69FB6802FA03F37A69D5
:10027C0013437B613B68DB78282B05D1BB690833C2
:10028C0001229A407B685A613B68DB78482B05D188
:10029C00BB69083301229A407B681A61BB69013340
:1002AC00BB61BB69072BC1D97B687A695A6000BFF7
:1002BC002437BD4680BC704780B483B000AF7860F3
:1002CC007B684FF6FF721A807B6802229A707B68FB
:1002DC000422DA7000BF0C37BD4680BC704780B476
:1002EC0085B000AF78600B467B800023FB737B6886
:1002FC009A687B881340002B02D00123FB7301E02A
:10030C000023FB73FB7B18461437BD4680BC70473B
:10031C0080B483B000AF78600B467B807A887B68B2
:10032C001A6100BF0C37BD4680BC704780B58AB0DF
:10033C0000AF786039600023FB8400237B840423A6
:10034C00BB84574BFB617B689B88FB84FB8C23F045
:10035C003F03FB8407F10803184600F093F93B694F
:10036C00FB61FB694F4AA2FB03239B0C7B84FA8C39
:10037C007B8C1343FB847B68FA8C9A807B681B888C
:10038C009BB223F001039AB27B681A800023FB8492
:10039C003B681B68444A934215D83B681B685B005A
:1003AC00FA69B2FBF3F3BB84BB8C032B01D8042397
:1003BC00BB84FA8CBB8C1343FB847B8C01339AB2C9
:1003CC007B681A8440E03B68DB884BF6FF729342F3
:1003DC0009D13B681A6813465B001344FA69B2FBF7
:1003EC00F3F3BB840EE03B681A6813469B0013447E
:1003FC009A001344FA69B2FBF3F3BB84BB8C43F44D
:10040C008043BB84BB8CC3F30B03002B03D1BB8C8D
:10041C0043F00103BB84BA8CFB8C13439BB26FEA91
:10042C0043436FEA5343FB847B8C4FF4967202FB7D
:10043C0003F31E4A82FB03129211DB17D31A9BB2F1
:10044C0001339AB27B681A847B68FA8C9A837B6836
:10045C001B889BB243F001039AB27B681A807B68BD
:10046C001B88FB84FB8C23F4816323F00203FB8445
:10047C003B689A883B685B8913439AB2FB8C1343A5
:10048C00FB847B68FA8C1A803B689A893B681B89D1
:10049C0013439AB27B681A8100BF2837BD4680BDD2
:1004AC0000127A0083DE1B43A0860100D34D62103C
:1004BC0080B483B000AF78600B46FB70FB78002BE8
:1004CC0008D07B681B889BB243F001039AB27B680F
:1004DC001A8007E07B681B889BB223F001039AB259
:1004EC007B681A8000BF0C37BD4680BC704780B457
:1004FC0083B000AF78600B46FB70FB78002B08D004
:10050C007B681B889BB243F480739AB27B681A8019
:10051C0007E07B681B889BB223F480739AB27B68DC
:10052C001A8000BF0C37BD4680BC704780B483B0C6
:10053C0000AF78600B46FB70FB78002B08D07B6813
:10054C001B889BB243F400739AB27B681A8007E055
:10055C007B681B889BB223F400739AB27B681A8069
:10056C0000BF0C37BD4680BC704780B483B000AF71
:10057C0078600B46FB70FB789AB27B681A8200BFDE
:10058C000C37BD4680BC704780B483B000AF786038
:10059C000B46FB701346BB70BB78002B04D0FB786A
:1005AC0043F00103FB7003E0FB7823F00103FB70C5
:1005BC00FB789AB27B681A8200BF0C37BD4680BCB0
:1005CC00704780B487B000AF7860396000233B611E
:1005DC000023FB600023BB600023FB757B689B8AB8
:1005EC009BB2FB607B681B8B9BB2BB60BB681B0424
:1005FC00BB60FA68BB68134323F07F433B613A69E5
:10060C003B681A403B689A4202D10123FB7501E01A
:10061C000023FB75FB7D18461C37BD4680BC70471C
:10062C0080B487B000AF786039600023FB7500237D
:10063C003B610023FB607B68FB603B681B0F3B61ED
:10064C003B6823F07F433B603B69002B03D0FB6886
:10065C001433FB6005E03B681B0C3B60FB681833F4
:10066C00FB60FB681A683B681340002B02D0012327
:10067C00FB7501E00023FB75FB7D18461C37BD465E
:10068C0080BC704780B487B000AF786000237B617A
:10069C0000233B610023FB600023BB604C4B5B6879
:1006AC0003F00C037B617B69042B07D0082B09D06A
:1006BC00002B33D17B68474A1A6033E07B68454A8C
:1006CC001A602FE0424B5B6803F470133B61404BA4
:1006DC005B6803F48033FB603B699B0C02333B612A
:1006EC00FB68002B06D13B693B4A02FB03F27B689B
:1006FC001A6017E0364B5B6803F40033002B06D00E
:10070C003B69354A02FB03F27B681A600AE03B69DD
:10071C00304A02FB03F27B681A6003E07B682D4AC7
:10072C001A6000BF2A4B5B6803F0F0037B617B69A6
:10073C001B097B61294A7B6913441B78DBB2BB60C4
:10074C007B681A68BB68DA407B685A60204B5B6830
:10075C0003F4E0637B617B691B0A7B611F4A7B6945
:10076C0013441B78DBB2BB607B685A68BB68DA4009
:10077C007B689A60164B5B6803F460537B617B6902
:10078C00DB0A7B61154A7B6913441B78DBB2BB60C7
:10079C007B685A68BB68DA407B68DA600C4B5B6834
:1007AC0003F440437B617B699B0B7B610C4A7B6947
:1007BC0013441B78DBB2BB607B68DA68BB68B2FBA6
:1007CC00F3F27B681A6100BF1C37BD4680BC7047D2
:1007DC000010024000127A0000093D0000000020C9
:1007EC001000002080B483B000AF78600B46FB7023
:1007FC00FB78002B06D00949084B9A697B68134398
:10080C008B6106E00549054B9A697B68DB43134015
:10081C008B6100BF0C37BD4680BC70470010024096
:10082C0080B483B000AF78600B46FB70FB78002B74
:10083C0006D00949084BDA697B681343CB6106E0A3
:10084C000549054BDA697B68DB431340CB6100BF7C
:10085C000C37BD4680BC70470010024080B485B098
:10086C0000AF786039600023FB817B681B88FB81BB
:10087C007B682E4A934213D07B682D4A93420FD04B
:10088C007B68B3F1804F0BD07B682A4A934207D028
:10089C007B68294A934203D07B68284A934208D14B
:1008AC00FB8923F07003FB813B685A88FB89134357
:1008BC00FB817B68224A93420CD07B68214A93428D
:1008CC0008D0FB8923F44073FB813B68DA88FB89F1
:1008DC001343FB817B68FA891A803B689A887B6892
:1008EC009A853B681A887B681A857B680F4A934205
:1008FC000FD07B680E4A93420BD07B68124A93420E
:10090C0007D07B68114A934203D07B68104A93420C
:10091C0004D13B681B7A9AB27B681A867B680122E9
:10092C009A8200BF1437BD4680BC7047002C014032
:10093C00003401400004004000080040000C00405E
:10094C0000100040001400400040014000440140F1
:10095C000048014080B483B000AF78607B684FF6EC
:10096C00FF729A807B6800221A807B680022DA80F2
:10097C007B6800225A807B6800221A7200BF0C37F9
:10098C00BD4680BC704780B483B000AF78600B4626
:10099C00FB70FB78002B08D07B681B889BB243F064
:1009AC0001039AB27B681A8007E07B681B889BB2B4
:1009BC0023F001039AB27B681A8000BF0C37BD4646
:1009CC0080BC704780B483B000AF78600B467B80EE
:1009DC0013467B707B78002B08D07B689B899AB27E
:1009EC007B8813439AB27B689A8109E07B689B8968
:1009FC009AB27B88DB439BB213409AB27B689A8194
:100A0C0000BF0C37BD4680BC704780B487B000AFC8
:100A1C00F860084611461A4603467B810B463B811B
:100A2C001346FB800023FB820023BB8200237B82C6
:100A3C00FB681B89FB82FB681B8BBB82FB681B8CD6
:100A4C007B82FB8A23F00703FB82FA8A7B891343A0
:100A5C00FB82BB8A23F4407323F00303BB82BB8A63
:100A6C0043F4807343F00103BB827B8A23F022039F
:100A7C007B82FB881B019AB23B8913439AB27B8A17
:100A8C0013437B82FB68FA8A1A81FB68BA8A1A8341
:100A9C00FB687A8A1A8400BF1C37BD4680BC70473D
:100AAC0080B485B000AF78600B467B800023FB736D
:100ABC000023BB8100237B817B681B8A9AB27B88D5
:100ACC001340BB817B689B899AB27B8813407B81E6
:100ADC00BB89002B05D07B89002B02D00123FB7333
:100AEC0001E00023FB73FB7B18461437BD4680BC2A
:100AFC00704780B483B000AF78600B467B807B88F6
:100B0C00DB439AB27B681A8200BF0C37BD4680BCAF
:100B1C007047000080B483B000AF0346FB710849F6
:100B2C0097F907305B09FA7902F01F02012000FAED
:100B3C0002F241F8232000BF0C37BD4680BC704741
:100B4C0000E100E080B586B000AF01210420FFF782
:100B5C0049FE4823FB75C023BB820223BB7507F1FA
:100B6C00140319461F48FFF7EBFA01210220FFF787
:100B7C0057FE07F108031846FFF7ECFE0323BB8171
:100B8C0010237B8107F1080319461748FFF766FE0F
:100B9C000023002203211448FFF737FF0122012113
:100BAC001148FFF70FFF01210F48FFF7ECFE1D2046
:100BBC00FFF7B0FF01210420FFF714FE3B1D184680
:100BCC00FFF77AFB4823FB712023BB800223BB7108
:100BDC003B1D19460348FFF7B3FA00BF1837BD4653
:100BEC0080BD00BF000801400004004080B500AF8C
:100BFC0001210820FFF7F6FD01210120FFF7F2FD8E
:100C0C0001214FF40010FFF70BFE164B164A1A6029
:100C1C00144B00229A80134B4BF6FF72DA80114B67
:100C2C0015221A810F4B4FF480625A810D4B4FF4F1
:100C3C0080429A810B490D48FFF778FB0C4BC02280
:100C4C001A800B4B1C22DA70094B03229A7008494C
:100C5C000848FFF775FA01210448FFF729FC00BF8B
:100C6C0080BD00BF38000020A08601000054004069
:100C7C0048000020000C014080B582B000AF7860C5
:100C8C000B46FB701346BB7000BF4FF40031786805
:100C9C00FFF7C6FC0346002BF7D101217868FFF75C
:100CAC0026FC00BF14497868FFF78BFC0346002B29
:100CBC00F8D0BB785B00DBB2FA7819467868FFF79E
:100CCC0063FCFB78002B07D100BF0C497868FFF759
:100CDC0078FC0346002BF8D0FB78012B07D100BF22
:100CEC0007497868FFF76DFC0346002BF8D000BF6E
:100CFC000837BD4680BD00BF01000300820007001D
:100D0C000200030080B582B000AF78600B46FB7028
:100D1C00FB7819467868FFF728FC00BF054978680E
:100D2C00FFF74FFC0346002BF8D000BF0837BD4639
:100D3C0080BD00BF8400070080B582B000AF0346C1
:100D4C00FB71FB790121184600F0CAF800BF083787
:100D5C00BD4680BD80B582B000AF0346FB710B462B
:100D6C00BB7113467B710D4AFB7913700B4ABB792F
:100D7C0053710A4A7B799371084B0022DA71FFF7A1
:100D8C0035FF064B00225A707A79BB79114618460A
:100D9C0000F006F800BF0837BD4680BD4C000020AF
:100DAC0080B582B000AF03460A46FB711346BB7197
:100DBC00BB79012B06D9264B5B7843F00803DAB2DA
:100DCC00234B5A70224ABB791371322000F032F94E
:100DDC001F4BDB79184600F0B5F84FF47A7000F031
:100DEC0029F9302000F09DF841F2941000F042F9FE
:100DFC00302000F096F841F2941000F03BF93020CE
:100E0C0000F08FF8962000F035F9202000F089F8DA
:100E1C000F4B5B7843F02003DBB2184600F052F81E
:100E2C000B4B04229A7000F02BF800F013F8084BCF
:100E3C000222DA70064BDB7843F00403DBB218466F
:100E4C0000F040F800F011F800BF0837BD4680BD37
:100E5C004C00002080B500AF012000F033F840F6C4
:100E6C00B83000F007F900BF80BD80B500AF02209C
:100E7C0000F028F840F6B83000F0FCF800BF80BD58
:100E8C0080B500AF084B9B7843F00403DAB2064BF5
:100E9C009A70054B9B7843F00803DBB2184600F0C0
:100EAC0011F800BF80BD00BF4C00002080B500AF22
:100EBC00034B0822DA71002000F044F800BF80BD1B
:100ECC004C00002080B582B000AF0346FB71FB796B
:100EDC000021184600F004F800BF0837BD4680BD5D
:100EEC0080B584B000AF03460A46FB711346BB7154
:100EFC00FB7923F00F03FB73FB791B01BB73FA7BAC
:100F0C00BB791343DBB2184600F00BF8BA7BBB7904
:100F1C001343DBB2184600F004F800BF1037BD468F
:100F2C0080BD80B582B000AF0346FB71FB791846DB
:100F3C0000F008F8FB79184600F026F800BF0837D7
:100F4C00BD4680BD80B582B000AF0346FB710C4B33
:100F5C001B781A4600210B48FFF78EFE084BDA79F6
:100F6C00FB791343DBB219460648FFF7CBFE012190
:100F7C000448FFF7DBFA00BF0837BD4680BD00BF51
:100F8C004C0000200054004080B582B000AF0346F6
:100F9C00FB71FB7943F00403DBB21846FFF7D2FF79
:100FAC00012000F067F8FB7923F00403DBB218464C
:100FBC00FFF7C8FF322000F05DF800BF0837BD46D0
:100FCC0080BD80B584B000AF78600023FB7309E06E
:100FDC00FB7B7A6813441B781846FFF7ADFEFB7B4E
:100FEC000133FB73FB7B7A6813441B78002BEFD126
:100FFC0000BF1037BD4680BD80B582B000AF012167
:10100C000420FFF7EFFB4FF4F053BB801023FB7170
:10101C000223BB713B1D19460548FFF791F84FF4AD
:10102C00F0510348FFF774F900BF0837BD4680BD87
:10103C000008014080B588B000AF786007F1080364
:10104C001846FFF71FFBFB68094AA2FB03235B0B47
:10105C007A6802FB03F3FB6102E0FB69013BFB6175
:10106C00FB69002BF9D100BF2037BD4680BD00BF06
:10107C005917B7D180B588B000AF786007F1080375
:10108C001846FFF7FFFAFB68094AA2FB03239B0DE6
:10109C007A6802FB03F3FB6102E0FB69013BFB6135
:1010AC00FB69002BF9D100BF2037BD4680BD00BFC6
:1010BC006BCA5F6B80B500AF01211248FFF7F0FCE3
:1010CC000346002B1CD001210E48FFF712FD0E4BDE
:1010DC001B78DBB2032B03D10B4B00221A7002E0FE
:1010EC00094B01221A70074B1B889BB203F01003AB
:1010FC00002B14BF01230023DBB21A46034B1A70DA
:10110C0000BF80BD0004004014000020340000200B
:10111C0080B588B000AFFFF76FFFFFF713FD022219
:10112C0010212720FFF716FE4FF47A70FFF782FF8D
:10113C00FFF7BCFE5A48FFF744FF0123FB7700235F
:10114C00BB6120215748FFF7CAF80346002B63D137
:10115C00FFF780FEFB7F013B07F12002134413F8DD
:10116C00083C83F00103DBB2002B08D0FB7F013B72
:10117C0007F120021344012203F8082C07E0FB7F3F
:10118C00013B07F120021344002203F8082CFB7FDB
:10119C00012B05D1434A434BDB6883F48053D36066
:1011AC00FB7F022B05D13F4A3E4BDB6883F4006387
:1011BC00D360FB7F032B05D13A4A3A4BDB6883F4AF
:1011CC008063D360FB7F042B05D1364A354BDB683B
:1011DC0083F40073D3604FF4C870FFF72BFFFA7FD2
:1011EC003B1D3149184600F056FA3B1D1846FFF7D7
:1011FC00E8FEFB7F013B07F12002134413F8083C87
:10120C0083F00103DBB2002B03D02848FFF7D9FE93
:10121C0002E02748FFF7D5FE264B1B78DBB2002BEC
:10122C008FD0244B00221A70234B1B78DBB2002B7F
:10123C000AD1FFF70FFEFB7F0133FB77FB7F052BFA
:10124C000CD10123FB7709E0FFF704FEFB7F013B88
:10125C00FB77FB7F002B01D10423FB77FA7F3B1D2F
:10126C001149184600F017FA3B1D1846FFF7A9FE66
:10127C00FB7F013B07F12002134413F8083C83F079
:10128C000103DBB2002B03D00848FFF79AFE02E003
:10129C000748FFF796FE4FF4FA70FFF7CBFE50E7C6
:1012AC0030170008000801403C17000848170008D8
:1012BC00501700081400002034000020DFF834D050
:1012CC00002103E00C4B5B58435004310B480C4B92
:1012DC0042189A42F6D30B4A02E0002342F8043B30
:1012EC00094B9A42F9D300F03DF800F0EBF9FFF707
:1012FC000FFF7047005000205C1700080000002012
:10130C00180000201800002054000020FEE780B4D4
:10131C0000AF00BFBD4680BC704780B400AFFEE795
:10132C0080B400AFFEE780B400AFFEE780B400AF3E
:10133C00FEE780B400AF00BFBD4680BC704780B4F0
:10134C0000AF00BFBD4680BC704780B400AF00BF8B
:10135C00BD4680BC704780B400AF00BFBD4680BCAA
:10136C007047000080B500AF154A154B1B6843F061
:10137C00010313601249124B5A68124B13404B6015
:10138C000F4A0F4B1B6823F0847323F480331360D4
:10139C000B4A0B4B1B6823F480231360084A084B41
:1013AC005B6823F4FE035360054B4FF41F029A60F5
:1013BC0000F00CF8044B4FF000629A6000BF80BD47
:1013CC00001002400000FFF800ED00E080B500AF17
:1013DC0000F002F800BF80BD80B483B000AF0023E2
:1013EC007B6000233B603A4A394B1B6843F48033E3
:1013FC001360374B1B6803F400333B607B6801338D
:10140C007B603B68002B03D17B68B3F5A06FF0D1F8
:10141C002F4B1B6803F40033002B02D001233B60DD
:10142C0001E000233B603B68012B4BD1294A294B3F
:10143C001B6843F010031360264A264B1B6823F0ED
:10144C0003031360234A234B1B6843F0020313600E
:10145C001F4A1F4B5B6853601D4A1D4B5B685360F2
:10146C001B4A1B4B5B6843F480635360184A184B50
:10147C005B6823F47C135360154A154B5B6843F48B
:10148C00E8135360124A124B1B6843F080731360CD
:10149C0000BF0F4B1B6803F00073002BF9D00C4AF4
:1014AC000B4B5B6823F003035360094A084B5B68E2
:1014BC0043F00203536000BF054B5B6803F00C0361
:1014CC00082BF9D100BF0C37BD4680BC704700BF5C
:1014DC00001002400020024080B487B000AFF860DA
:1014EC00B9607A6001237B6104E07B697A6802FB56
:1014FC0003F37B617B69BA68B2FBF3F27B689A42B7
:10150C00F3D229E07B69BA68B2FBF3F33B617A69E9
:10151C00BB68B3FBF2F102FB01F29B1ABB607A6968
:10152C007B6892FBF3F37B613B69092B0ADDFB685B
:10153C001B68591CFA6811603A69D2B23732D2B2C0
:10154C001A7009E0FB681B68591CFA6811603A694B
:10155C00D2B23032D2B21A707B69002BD2D100BF1A
:10156C001C37BD4680BC704780B588B000AFF860B2
:10157C00B9607A60FB687B617DE0BB681B78252BCA
:10158C0071D1BB680133BB60BB681B78642B1ED068
:10159C00642B06DC582B50D0632B0ED0252B58D047
:1015AC005DE0732B2BD0732B02DC692B0FD056E034
:1015BC00752B37D0782B40D051E0FB685A1CFA6061
:1015CC007A68111D79601268D2B21A7047E07B6894
:1015DC001A1D7A601B68FB61FB69002B07DAFB693B
:1015EC005B42FB61FB685A1CFA602D221A70F96988
:1015FC0007F10C030A221846FFF76EFF2FE07B68F9
:10160C001A1D7A601B68BB6107E0FB685A1CFA6004
:10161C00BA69511CB96112781A70BB691B78002B1E
:10162C00F3D11CE07B681A1D7A60196807F10C0372
:10163C000A221846FFF750FF11E07B681A1D7A60EA
:10164C001B68194607F10C0310221846FFF744FFDC
:10165C0005E0FB685A1CFA6025221A7000BFBB68B3
:10166C000133BB6007E0FB685A1CFA60BA68511C76
:10167C00B96012781A70BB681B78002B7FF47DAFB1
:10168C00FB6800221A70FB681A467B69D31A18464D
:10169C002037BD4680BD0EB480B585B000AF7860F4
:1016AC0007F12003BB60BA68F9697868FFF75CFF43
:1016BC00F860FB6818461437BD46BDE8804003B09F
:1016CC007047000070B500250C4E0D4CA41BA410E7
:1016DC00A54209D100F01AF800250A4E0A4CA41BA9
:1016EC00A410A54205D170BD56F825309847013598
:1016FC00EEE756F8253098470135F2E75417000805
:10170C00541700085417000858170008F8B500BF04
:10171C00F8BC08BC9E467047F8B500BFF8BC08BCC6
:04172C009E4670471E
:1017300052656C61795F31206F66660052656C613D
:10174000795F256400000000206F666600000000DD
:04175000206F6E0098
:041754003101000857
:041758000D01000877
:10175C00000000000102030401020304060708094B
:08176C0002040608030000005E
:04000005080012C914
:00000001FF
